:03000000020800F3
:0C080000787FE4F6D8FD758113020847EC
:070A5600010E00020F000079
:100A1A00758920758DE875985075884075A890C2BB
:060A2A0098C299D28E2251
:030023000209D0FF
:1009D000C0E0C0D0859913D295C298E513B4300613
:1009E000D292050E800FE513B4310AD2930510E5BB
:0A09F000107002050FD0D0D0E032E5
:10094900120A1A120A411209927F807E00120A378E
:100959007F54120A4C7F31120A4C7F847E00120A9E
:10096900377F54120A4C7F32120A4C7FC07E001224
:100979000A37AF0E7E0012088C7FC47E00120A3738
:09098900AF10AE0F12088C80C003
:0B0A4100E4F580F590F5A075B00322ED
:0809FA008FA0D2917F967E00D0
:100A0200E4FDFCC3ED9FEE6480F8EC64809850072F
:070A12000DBD00010C80EC9A
:010A190022BA
:0A0A4C00D2901209FAC291020A02C8
:070A3000120A027F307E0074
:0A0A3700C2901209FAC291020A02ED
:100992007F987E3A120A307F947E11120A307F2CA1
:1009A2007E01120A027F301E120A377F8A7E0212ED
:1009B2000A027F387E00120A377F0C7E00120A3745
:0E09C2007F017E00120A377F067E00020A3790
:04088C00AB07AA0606
:100890007511007512027C007D0AAF03AE021208CA
:1008A000F4E51225E02408F8A60408A6057C007DDE
:1008B0000AAF03AE021208F4AA06AB07E51215123E
:1008C00070021511E512B4FFCDE511B4FFC8E4FBC9
:1008D000FAEB25E02408F808E62430F9D290F5A0D8
:1008E0001209FCC291120A020BBB00010AEB64035D
:0308F0004A70DE6D
:0108F30022E2
:10080C00020949E493A3F8E493A34003F68001F2B0
:10081C0008DFF48029E493A3F85407240CC8C333ED
:10082C00C4540F4420C8834004F456800146F6DFBC
:10083C00E4800B0102040810204080900A56E47EEC
:10084C00019360BCA3FF543F30E509541FFEE493B1
:10085C00A360010ECF54C025E060A840B8E493A378
:10086C00FAE493A3F8E493A3C8C582C8CAC583CAA3
:10087C00F0A3C8C582C8CAC583CADFE9DEE780BE5B
:010A5D000098
:1008F400BC000BBE0029EF8DF084FFADF022E4CCE8
:10090400F875F008EF2FFFEE33FEEC33FCEE9DECB0
:10091400984005FCEE9DFE0FD5F0E9E4CEFD22EDF6
:10092400F8F5F0EE8420D21CFEADF075F008EF2F40
:10093400FFED33FD4007985006D5F0F222C398FD31
:050944000FD5F0EA22CE
:00000001FF
