:030000000208CE25
:0C08CE00787FE4F6D8FD75810A02084628
:0408E20030003100B1
:10089A00E4FDFCC3ED9FEC9E5015E4FBFA0BBB0094
:0F08AA00010ABA04F8BBFBF50DBD00010C80E498
:0108B900221C
:0808DA008F993099FDC29922AB
:1008BA00758920758DE875985075884075A890C21D
:0408CA0098C2992215
:060873008B088A09890AC6
:10087900E4FDFCAB08AA09A90A8D828C8312081928
:10088900600E120800FF1208DA0DBD00010C80E3AA
:01089900223C
:100846001208BA2097127BFF7A0879E21208737FA2
:10085600327E0012089A80EB2096E87BFF7A0879B0
:0D086600E41208737F327E0012089A80D6DB
:10080000BB010689828A83E0225002E722BBFE02F6
:09081000E32289828A83E4932229
:10081900BB010CE58229F582E5833AF583E0225094
:1008290006E92582F8E622BBFE06E92582F8E222DE
:0D083900E58229F582E5833AF583E49322F8
:00000001FF
